:100000000C945D000C9485000C9485000C94850084
:100010000C9485000C9485000C9485000C9485004C
:100020000C9485000C9485000C9485000C9485003C
:100030000C9485000C9485000C9485000C9485002C
:100040000C9420040C9485000C9485000C9485007D
:100050000C9485000C9485000C9485000C9485000C
:100060000C946A040C948500000000080002010052
:100070000003040700000000000000000000000072
:10008000250028002B0000000000240027002A0083
:10009000040404040404040402020202020203032E
:1000A0000303030301020408102040800102040836
:1000B0001020010204081020890511241FBECFEF73
:1000C000D8E0DEBFCDBF11E0A0E0B1E0E4E5F3E1B0
:1000D00002C005900D92A434B107D9F722E0A4E440
:1000E000B1E001C01D92A332B207E1F710E0CDE507
:1000F000D0E004C02197FE010E94A209CC35D107AF
:10010000C9F70E94A9050C94A8090C940000089551
:100110000895AF92BF92CF92DF92EF92FF920F932A
:100120001F93CF93DF936C017B018B01040F151F8D
:10013000EB015E01AE18BF08C017D10759F06991F5
:10014000D601ED91FC910190F081E02DC601099559
:10015000892B79F7C501DF91CF911F910F91FF9006
:10016000EF90DF90CF90BF90AF90089590E0FC01AA
:10017000E859FF4F2491FC01EC55FF4F3491FC01ED
:10018000E057FF4FE491EE23C9F0222339F02330EA
:1001900001F1A8F4213019F1223029F1F0E0EE0F3D
:1001A000FF1FE458FF4FA591B4918FB7F894EC91DD
:1001B000611126C030953E233C938FBF08952730B0
:1001C000A9F02830C9F0243049F7809180008F7D54
:1001D00003C0809180008F7780938000DFCF84B54B
:1001E0008F7784BDDBCF84B58F7DFBCF8091B0004E
:1001F0008F778093B000D2CF8091B0008F7DF9CF00
:100200003E2BDACF3FB7F8948091FB019091FC012F
:10021000A091FD01B091FE0126B5A89B05C02F3F1E
:1002200019F00196A11DB11D3FBFBA2FA92F982F1C
:100230008827BC01CD01620F711D811D911D42E017
:10024000660F771F881F991F4A95D1F708958F92DF
:100250009F92AF92BF92CF92DF92EF92FF924B01AB
:100260005C010E9402016B017C010E9402016C1979
:100270007D098E099F09683E734081059105A8F3A9
:1002800021E0821A9108A108B10888EEC80E83E027
:10029000D81EE11CF11C81149104A104B10429F7BA
:1002A000FF90EF90DF90CF90BF90AF909F908F9096
:1002B00008952091AC01260F3327331F21323105D9
:1002C000ECF42091D001FC0190E080E0243069F052
:1002D00082E00895A091AC012191AC0144575E4F9A
:1002E000A40FB52FB11D2C930196861798F380911A
:1002F000AC01680F6093AC0180E0089581E008953F
:100300001092D00181E08093D2011092D10161E07E
:1003100082E10E94B60061E083E10E94B600E9EB51
:10032000F0E080818E7F808380818D7F808388E470
:100330008093B80085E48093BC000895CF93DF9349
:1003400091E090938B018823B9F0C091B800D091CF
:10035000BA008091BC008A7B8093BC0060E082E19F
:100360000E94B60060E083E10E94B6000E94800116
:10037000D093BA00C093B800DF91CF91089508954B
:10038000E091060280910502E81730F4F0E0EA59A6
:10039000FE4F808190E008958FEF9FEF0895909138
:1003A0000602809105022FEF3FEF981748F4E92FDE
:1003B000F0E0EA59FE4F208130E09F5F9093060203
:1003C000C90108958091050290910602891B990B3D
:1003D0000895CF92DF92EF92FF920F931F93CF93E6
:1003E000DF937C01CB018A0120916501222389F0F2
:1003F000EB016B01C40ED51ECC15DD0569F06991CA
:10040000D701ED91FC910190F081E02DC701099594
:10041000F3CF642F0E945901C801DF91CF911F9142
:100420000F91FF90EF90DF90CF900895CF93DF93DF
:100430001F92CDB7DEB76983209165012223F9F0C1
:1004400020910302203258F021E030E0FC01338398
:10045000228390E080E00F90DF91CF91089580910A
:100460000402E82FF0E0EB5BFE4F998190838F5FF1
:10047000809304028093030281E090E0ECCF61E07E
:10048000CE0101960E945901F7CFCF92DF92EF92F1
:10049000FF920F931F93CF93DF93FC01C48121E060
:1004A00020936501C093440110920402109203024C
:1004B0008385682B8BE092E00E941602D0910302A4
:1004C000D13208F092C00E9402016B017C01809140
:1004D000D001811165C082E08093D00181E08093DA
:1004E000D2018FEF8093CF011092F401D093F301EA
:1004F000A5E4B1E0E3EDF1E080E0D81385C010920F
:10050000F5018091F501CC0FC82BC093F5018091C6
:10051000D101813009F07CC01092D1010E9402010A
:100520006B017C018091F5018093BB008091870174
:1005300090918801A0918901B0918A01892B8A2B21
:100540008B2B99F00E940201009187011091880184
:100550002091890130918A016C197D098E099F09CA
:100560000617170728073907E0F18091BC0083FDC3
:10057000D9CF85EC8093BC000E9402016B017C0105
:100580008091D001823009F445C08091CF018F3F26
:1005900061F18091CF01803241F18091CF0125C07E
:1005A0008091870190918801A0918901B0918A0181
:1005B000892B8A2B8B2B09F48ACF0E940201009190
:1005C0008701109188012091890130918A016C196D
:1005D0007D098E099F09061717072807390708F0B4
:1005E00076CF809186010E949E01109204021092A3
:1005F000030210926501DF91CF911F910F91FF903F
:10060000EF90DF90CF9008959D9191938F5F75CF7C
:1006100085EEB0CF8091870190918801A0918901EA
:10062000B0918A01892B8A2B8B2B09F4A9CF0E94C8
:100630000201009187011091880120918901309178
:100640008A016C197D098E099F090617170728076B
:10065000390708F095CFC5CF089590E080E0089560
:10066000FC0101900020E9F73197AF01481B590BBD
:10067000BC0187E192E00C9489008F929F92AF9227
:10068000BF920F931F93CF93DF93CDB7DEB7A197A0
:100690000FB6F894DEBF0FBECDBF19A2423008F4EA
:1006A0004AE08E010F5D1F4F842E912CB12CA12C9E
:1006B000A50194010E946C09E62FB901CA01EA3034
:1006C000F4F4E05DD801EE938D01232B242B252B30
:1006D00079F790E080E0109719F0CD010E94300387
:1006E000A1960FB6F894DEBF0FBECDBFDF91CF91BC
:1006F0001F910F91BF90AF909F908F900895E95CEC
:10070000E1CF0F931F93CF938C01C62F0E94450218
:100710006C2F6460C8010E9445026C2F6B7FC8017A
:100720000E94450283EC90E00197F1F7CF911F9171
:100730000F9108950F931F93CF93DF938C01D62FC2
:10074000C42F607F642B0E94810380E1D89FB00199
:1007500011246C2BC801DF91CF911F910F910C9444
:100760008103CF93DF93CDB7DEB728970FB6F89408
:10077000DEBF0FBECDBF98E0E0E0F1E0DE011196F4
:1007800001900D929A95E1F790911F02981708F445
:100790008FEF90E0880F991F21E030E02C0F3D1F74
:1007A000820F931FFC016081606840E087E192E066
:1007B00028960FB6F894DEBF0FBECDBFDF91CF9164
:1007C0000C949A0341E00E949A0381E090E008951E
:1007D00085ED8093BC008091870190918801A09164
:1007E0008901B0918A010796A11DB11D23E0B6953C
:1007F000A795979587952A95D1F72091BC0024FD60
:1008000003C01092D0010895409187015091880152
:100810006091890170918A01452B462B472B69F322
:100820000097A105B10541F02AE22A95F1F700C031
:100830000197A109B109E1CF809186010C949E0135
:100840001F920F920FB60F9211242F933F938F9305
:100850009F93AF93BF938091F7019091F801A0917E
:10086000F901B091FA013091F60123E0230F2D3701
:1008700058F50196A11DB11D2093F6018093F70153
:100880009093F801A093F901B093FA018091FB01D4
:100890009091FC01A091FD01B091FE010196A11D76
:1008A000B11D8093FB019093FC01A093FD01B093D7
:1008B000FE01BF91AF919F918F913F912F910F902A
:1008C0000FBE0F901F90189526E8230F0296A11DCA
:1008D000B11DD2CF1F920F920FB60F9211242F93FA
:1008E0003F934F935F936F937F938F939F93AF93B8
:1008F000BF93EF93FF938091B900887F803609F40E
:100900004AC0F0F5883209F4A7C018F5803109F41F
:100910009BC0B8F4882309F4F9C0883009F494C066
:10092000FF91EF91BF91AF919F918F917F916F91C7
:100930005F914F913F912F910F900FBE0F901F909D
:100940001895883109F488C0803251F78093CF011F
:1009500014C0803409F49DC040F48033B9F3883367
:10096000F9F68093CF0185ECB0C0803509F485C0DD
:10097000883509F496C0883499F60E94E803D0CFF0
:10098000883909F48CC038F5883729F050F4883656
:1009900011F0803729F683E08093D0011092CE01C8
:1009A00057C0883809F47BC0803919F0803809F0C5
:1009B000B7CF8091CE01803208F071C0E091CE01B6
:1009C00081E08E0F8093CE018091BB00F0E0E25574
:1009D000FE4F80833DC0803B39F0E0F4803A09F45B
:1009E00079C0883A09F09CCF84E08093D0011092BE
:1009F000AD011092AC01E0910102F0910202099563
:100A00008091AC0181110FC081E08093AC01109204
:100A10008C0109C0803C09F4A6CF883C09F4A3CF1F
:100A2000883B09F07DCFE091AD0181E08E0F80938E
:100A3000AD01F0E0E457FE4F80818093BB009091C0
:100A4000AD018091AC0129C08091F5018093BB007C
:100A500085EC8093BC0064CF9091F4018091F30108
:100A6000981758F5E091F40181E08E0F8093F4011E
:100A7000F0E0ED52FE4F8081E9CFE091F40181E09A
:100A80008E0F8093F4018091BB00F0E0ED52FE4F99
:100A900080839091F4018091F3019817C8F285E862
:100AA000D8CFE091F40181E08E0F8093F401809122
:100AB000BB00F0E0ED52FE4F80838091D2018111A6
:100AC0005CCF81E08093D10184EA8093BC001092D6
:100AD000D00126CF85EC8093BC001092D00180918C
:100AE000CE01803230F4E091CE01F0E0E255FE4FCD
:100AF00010826091CE0170E0E091FF01F091000260
:100B00008EEA91E009951092CE010ACF1092CF01A2
:100B100034CFEBE0F2E01382128288EE93E0A0E0A3
:100B2000B0E084839583A683B7838CE091E09183C2
:100B30008083E7E1F2E0138212828EE191E09183FB
:100B4000808380E2848380E1818782E082871386CC
:100B50000895789484B5826084BD84B5816084BD35
:100B600085B5826085BD85B5816085BD80916E004B
:100B7000816080936E00109281008091810082607C
:100B800080938100809181008160809381008091B9
:100B900080008160809380008091B10084608093A8
:100BA000B1008091B00081608093B00080917A00A4
:100BB000846080937A0080917A00826080937A00CA
:100BC00080917A00816080937A0080917A008068B9
:100BD00080937A001092C1001092060210920502D2
:100BE00010920402109203020E94800187E890E0B4
:100BF000909302028093010288E890E090930002B3
:100C00008093FF0110921C0280912102823018F023
:100C100098E090931C0280931F0262E370E080E0F2
:100C200090E00E9427016091220287E192E00E94F9
:100C3000450268EE73E080E090E00E94270160E3E7
:100C400087E192E00E948103CBE4D6E4CE010197D4
:100C5000F1F760E387E192E00E9481032197F1F7C9
:100C600060E387E192E00E94810383E592E00197CF
:100C7000F1F760E287E192E00E94810360911C023B
:100C8000606240E087E192E00E949A0384E08093F2
:100C90001D0240E06CE087E192E00E949A0340E090
:100CA00061E087E192E00E949A03CBE3DFE1CE01AD
:100CB0000197F1F782E080931E0240E066E087E151
:100CC00092E00E949A0340E062E087E192E00E9495
:100CD0009A032197F1F7E2EBF0E02491EEE9F0E0DE
:100CE00084918823C1F090E0880F991FFC01EA5796
:100CF000FF4FC591D491FC01E458FF4FA591B491E9
:100D00009FB7F8948881E22FE0958E2388838C9199
:100D1000E823EC939FBF80E00E94B10388E08093BA
:100D2000220260E087E192E00E94450260911D028C
:100D3000862F846080931D026C6040E087E192E022
:100D40000E949A0380E4782ECCE6D3E094E6692EE4
:100D500000E010E070927C0080917A0080648093C3
:100D60007A0080917A0086FDFCCF80917800909186
:100D70007900BE010E945809669EC001679E900DD1
:100D80001124BC01990F880B990B0E9431086093C4
:100D90000702709308028093090290930A0280E090
:100DA0000E94B10386E291E00E94300381E00E943C
:100DB000B103C0900702D0900802E0900902F090C1
:100DC0000A02A7019601C701B6010E9453098823B0
:100DD00089F087E391E00E9430036AE070E080E0F0
:100DE00090E00E9427010115110509F4B3CF0E947C
:100DF0000000B0CF46015701E894B7F82FEF3FEF5E
:100E00004FE75FE7C501B4010E94530981110DC08E
:100E10002FEF3FEF4FE75FE7C501B4010E94FB07EB
:100E200018161CF48BE391E0D6CF2FEF3FEF4FE77E
:100E30005FE4C701B6010E94E10818161CF48FE3B5
:100E400091E0C9CF2FEF3FEF4FE75FECC701B6014D
:100E50000E94FB0787FDF3CF20E030E0A901C70126
:100E6000B6010E94FB0787FF0AC041E06DE287E1FF
:100E700092E00E949A03F7FAF094F7F8F0942AE0CF
:100E800037ED43EA5BE3C701B6010E948F074B01D0
:100E90005C010E9400086B017C010E942F089B01ED
:100EA000AC01C501B4010E948E074B015C014AE010
:100EB000C701B6010E943D0341E06EE287E192E086
:100EC0000E949A0320E030E040E251E4C501B40101
:100ED0000E94E6084B015C010E9400086B01F12CA6
:100EE000E12C4AE0C701B6010E943D03C701B601EB
:100EF0000E942F089B01AC01C501B4010E948E071E
:100F000020E030E040E251E40E94E6080E94000840
:100F100090E080E04AE00E943D035FCF5058BB273D
:100F2000AA270E94A6070C94A7080E94990838F0E7
:100F30000E94A00820F039F49F3F19F426F40C9485
:100F400096080EF4E095E7FB0C949008E92F0E94B8
:100F5000B80858F3BA17620773078407950720F09B
:100F600079F4A6F50C94DA080EF4E0950B2EBA2F5E
:100F7000A02D0B01B90190010C01CA01A00111249F
:100F8000FF27591B99F0593F50F4503E68F11A164B
:100F9000F040A22F232F342F4427585FF3CF4695DC
:100FA00037952795A795F0405395C9F77EF41F16FE
:100FB000BA0B620B730B840BBAF09150A1F0FF0FC8
:100FC000BB1F661F771F881FC2F70EC0BA0F621FB4
:100FD000731F841F48F4879577956795B795F795A4
:100FE0009E3F08F0B0CF9395880F08F09927EE0F39
:100FF0009795879508950E946C0808F481E00895FC
:101000000E94C00888F09F5798F0B92F9927B751D0
:10101000B0F0E1F0660F771F881F991F1AF0BA959C
:10102000C9F714C0B13091F00E94DA08B1E0089518
:101030000C94DA08672F782F8827B85F39F0B93F0A
:10104000CCF3869577956795B395D9F73EF490954F
:101050008095709561957F4F8F4F9F4F0895E894CD
:1010600009C097FB3EF490958095709561957F4FF0
:101070008F4F9F4F9923A9F0F92F96E9BB2793959E
:10108000F695879577956795B795F111F8CFFAF4AE
:10109000BB0F11F460FF1BC06F5F7F4F8F4F9F4FDF
:1010A00016C0882311F096E911C0772321F09EE83D
:1010B000872F762F05C0662371F096E8862F70E0A3
:1010C00060E02AF09A95660F771F881FDAF7880F7D
:1010D0009695879597F90895990F0008550FAA0BD3
:1010E000E0E8FEEF16161706E807F907C0F012163B
:1010F0001306E407F50798F0621B730B840B950B3E
:1011000039F40A2661F0232B242B252B21F4089592
:101110000A2609F4A140A6958FEF811D811D08952F
:1011200097F99F6780E870E060E008959FEF80EC9A
:10113000089500240A94161617061806090608953D
:1011400000240A9412161306140605060895092EA3
:101150000394000C11F4882352F0BB0F40F4BF2B12
:1011600011F460FF04C06F5F7F4F8F4F9F4F089552
:1011700057FD9058440F551F59F05F3F71F0479548
:10118000880F97FB991F61F09F3F79F0879508952D
:10119000121613061406551FF2CF4695F1DF08C04C
:1011A000161617061806991FF1CF86957105610569
:1011B00008940895E894BB2766277727CB0197F911
:1011C00008950E946C0808F48FEF08950E94F908B2
:1011D0000C94A7080E94990838F00E94A00820F0FB
:1011E000952311F00C9490080C94960811240C94FB
:1011F000DB080E94B80870F3959FC1F3950F50E08B
:10120000551F629FF001729FBB27F00DB11D639FB8
:10121000AA27F00DB11DAA1F649F6627B00DA11D5E
:10122000661F829F2227B00DA11D621F739FB00D04
:10123000A11D621F839FA00D611D221F749F332774
:10124000A00D611D231F849F600D211D822F762F0D
:101250006A2F11249F5750409AF0F1F088234AF0EA
:10126000EE0FFF1FBB1F661F771F881F9150504056
:10127000A9F79E3F510580F00C9490080C94DB0870
:101280005F3FE4F3983ED4F3869577956795B795DD
:10129000F795E7959F5FC1F7FE2B880F911D9695F7
:1012A000879597F908950E946C08880B990B08950B
:1012B00097FB072E16F4009407D077FD09D00E9403
:1012C0008E0907FC05D03EF4909581959F4F0895B7
:1012D000709561957F4F0895A1E21A2EAA1BBB1B42
:1012E000FD010DC0AA1FBB1FEE1FFF1FA217B307F2
:1012F000E407F50720F0A21BB30BE40BF50B661F08
:10130000771F881F991F1A9469F7609570958095CB
:1013100090959B01AC01BD01CF010895AA1BBB1B99
:1013200051E107C0AA1FBB1FA617B70710F0A61BE5
:10133000B70B881F991F5A95A9F780959095BC0106
:10134000CD010895EE0FFF1F0590F491E02D099453
:04135000F894FFCF3F
:101354000000400014005400000000001602E901DF
:101364002D03BF01E201CF01C00100000000E20330
:1013740089002D032C03536D6172742049727269C4
:10138400676174696F6E006E616E00696E66006FEE
:041394007666000079
:00000001FF
